{
  "contractName": "VehicleContract",
  "abi": [
    {
      "constant": false,
      "inputs": [
        {
          "name": "name",
          "type": "string"
        }
      ],
      "name": "registerVehicle",
      "outputs": [],
      "payable": false,
      "stateMutability": "nonpayable",
      "type": "function"
    },
    {
      "constant": false,
      "inputs": [
        {
          "name": "speed",
          "type": "uint256"
        }
      ],
      "name": "addSensor",
      "outputs": [],
      "payable": false,
      "stateMutability": "nonpayable",
      "type": "function"
    },
    {
      "constant": true,
      "inputs": [
        {
          "name": "vid",
          "type": "address"
        }
      ],
      "name": "displayVehicleName",
      "outputs": [
        {
          "name": "",
          "type": "string"
        }
      ],
      "payable": false,
      "stateMutability": "view",
      "type": "function"
    },
    {
      "constant": false,
      "inputs": [
        {
          "name": "vid",
          "type": "address"
        },
        {
          "name": "measuredSpeed",
          "type": "uint256"
        }
      ],
      "name": "checkSpeed",
      "outputs": [],
      "payable": false,
      "stateMutability": "nonpayable",
      "type": "function"
    },
    {
      "constant": false,
      "inputs": [
        {
          "name": "vid",
          "type": "address"
        },
        {
          "name": "sid",
          "type": "address"
        },
        {
          "name": "measuredSpeed",
          "type": "uint256"
        }
      ],
      "name": "giveTicket",
      "outputs": [],
      "payable": false,
      "stateMutability": "nonpayable",
      "type": "function"
    },
    {
      "constant": true,
      "inputs": [
        {
          "name": "vid",
          "type": "address"
        }
      ],
      "name": "displayVehicleTickets",
      "outputs": [
        {
          "name": "",
          "type": "uint256[]"
        }
      ],
      "payable": false,
      "stateMutability": "view",
      "type": "function"
    },
    {
      "constant": false,
      "inputs": [
        {
          "name": "ticketId",
          "type": "uint256"
        },
        {
          "name": "receiver",
          "type": "address"
        }
      ],
      "name": "payTicket",
      "outputs": [],
      "payable": true,
      "stateMutability": "payable",
      "type": "function"
    },
    {
      "inputs": [],
      "payable": false,
      "stateMutability": "nonpayable",
      "type": "constructor"
    },
    {
      "anonymous": false,
      "inputs": [
        {
          "indexed": false,
          "name": "time",
          "type": "uint256"
        },
        {
          "indexed": false,
          "name": "vehicleID",
          "type": "address"
        },
        {
          "indexed": false,
          "name": "sensorID",
          "type": "address"
        },
        {
          "indexed": false,
          "name": "measuredSpeed",
          "type": "uint256"
        }
      ],
      "name": "TicketAdded",
      "type": "event"
    },
    {
      "anonymous": false,
      "inputs": [
        {
          "indexed": false,
          "name": "time",
          "type": "uint256"
        },
        {
          "indexed": false,
          "name": "vehcileID",
          "type": "address"
        },
        {
          "indexed": false,
          "name": "amount",
          "type": "uint256"
        }
      ],
      "name": "TicketPayed",
      "type": "event"
    }
  ],
  "bytecode": "0x6060604052341561000f57600080fd5b6001600281905550610be8806100266000396000f300606060405260043610610082576000357c0100000000000000000000000000000000000000000000000000000000900463ffffffff1680626bd2af146100875780630adbba98146100e45780635914887f14610107578063683d8ea2146101b95780638d013b95146101fb578063acb08a851461025c578063d58c8c4c146102ea575b600080fd5b341561009257600080fd5b6100e2600480803590602001908201803590602001908080601f01602080910402602001604051908101604052809392919081815260200183838082843782019150505050505091905050610321565b005b34156100ef57600080fd5b61010560048080359060200190919050506103d3565b005b341561011257600080fd5b61013e600480803573ffffffffffffffffffffffffffffffffffffffff16906020019091905050610432565b6040518080602001828103825283818151815260200191508051906020019080838360005b8381101561017e578082015181840152602081019050610163565b50505050905090810190601f1680156101ab5780820380516001836020036101000a031916815260200191505b509250505060405180910390f35b34156101c457600080fd5b6101f9600480803573ffffffffffffffffffffffffffffffffffffffff16906020019091908035906020019091905050610521565b005b341561020657600080fd5b61025a600480803573ffffffffffffffffffffffffffffffffffffffff1690602001909190803573ffffffffffffffffffffffffffffffffffffffff1690602001909190803590602001909190505061057b565b005b341561026757600080fd5b610293600480803573ffffffffffffffffffffffffffffffffffffffff169060200190919050506107fc565b6040518080602001828103825283818151815260200191508051906020019060200280838360005b838110156102d65780820151818401526020810190506102bb565b505050509050019250505060405180910390f35b61031f600480803590602001909190803573ffffffffffffffffffffffffffffffffffffffff169060200190919050506108a1565b005b604080519081016040528082815260200160006040518059106103415750595b90808252806020026020018201604052508152506000803373ffffffffffffffffffffffffffffffffffffffff1673ffffffffffffffffffffffffffffffffffffffff16815260200190815260200160002060008201518160000190805190602001906103af929190610a76565b5060208201518160010190805190602001906103cc929190610af6565b5090505050565b60206040519081016040528082815250600160003373ffffffffffffffffffffffffffffffffffffffff1673ffffffffffffffffffffffffffffffffffffffff1681526020019081526020016000206000820151816000015590505050565b61043a610b43565b60008060008473ffffffffffffffffffffffffffffffffffffffff1673ffffffffffffffffffffffffffffffffffffffff1681526020019081526020016000209050806000018054600181600116156101000203166002900480601f0160208091040260200160405190810160405280929190818152602001828054600181600116156101000203166002900480156105145780601f106104e957610100808354040283529160200191610514565b820191906000526020600020905b8154815290600101906020018083116104f757829003601f168201915b5050505050915050919050565b600160003373ffffffffffffffffffffffffffffffffffffffff1673ffffffffffffffffffffffffffffffffffffffff168152602001908152602001600020600001548111156105775761057682338361057b565b5b5050565b7f5bc514c20d3f0faf30d408638c3c91afbc19aec70e9605d48b4b4d30e9e6074642843384604051808581526020018473ffffffffffffffffffffffffffffffffffffffff1673ffffffffffffffffffffffffffffffffffffffff1681526020018373ffffffffffffffffffffffffffffffffffffffff1673ffffffffffffffffffffffffffffffffffffffff16815260200182815260200194505050505060405180910390a160a06040519081016040528060025481526020018473ffffffffffffffffffffffffffffffffffffffff1681526020018373ffffffffffffffffffffffffffffffffffffffff168152602001828152602001428152506000808573ffffffffffffffffffffffffffffffffffffffff1673ffffffffffffffffffffffffffffffffffffffff168152602001908152602001600020600201600060025481526020019081526020016000206000820151816000015560208201518160010160006101000a81548173ffffffffffffffffffffffffffffffffffffffff021916908373ffffffffffffffffffffffffffffffffffffffff16021790555060408201518160020160006101000a81548173ffffffffffffffffffffffffffffffffffffffff021916908373ffffffffffffffffffffffffffffffffffffffff16021790555060608201518160030155608082015181600401559050506000808473ffffffffffffffffffffffffffffffffffffffff1673ffffffffffffffffffffffffffffffffffffffff16815260200190815260200160002060010180548060010182816107ce9190610b57565b9160005260206000209001600060025490919091505550600260008154809291906001019190505550505050565b610804610b83565b60008060008473ffffffffffffffffffffffffffffffffffffffff1673ffffffffffffffffffffffffffffffffffffffff16815260200190815260200160002090508060010180548060200260200160405190810160405280929190818152602001828054801561089457602002820191906000526020600020905b815481526020019060010190808311610880575b5050505050915050919050565b60008090508173ffffffffffffffffffffffffffffffffffffffff166108fc349081150290604051600060405180830381858888f1935050505015156108e657600080fd5b6000803373ffffffffffffffffffffffffffffffffffffffff1673ffffffffffffffffffffffffffffffffffffffff16815260200190815260200160002060020160008481526020019081526020016000206000808201600090556001820160006101000a81549073ffffffffffffffffffffffffffffffffffffffff02191690556002820160006101000a81549073ffffffffffffffffffffffffffffffffffffffff02191690556003820160009055600482016000905550506000803373ffffffffffffffffffffffffffffffffffffffff1673ffffffffffffffffffffffffffffffffffffffff168152602001908152602001600020600101838154811015156109ef57fe5b9060005260206000209001600090557fa838c43828c0d16966d456795f797735b37a951fe70bc6e8f02b59fc8766ace3423334604051808481526020018373ffffffffffffffffffffffffffffffffffffffff1673ffffffffffffffffffffffffffffffffffffffff168152602001828152602001935050505060405180910390a1505050565b828054600181600116156101000203166002900490600052602060002090601f016020900481019282601f10610ab757805160ff1916838001178555610ae5565b82800160010185558215610ae5579182015b82811115610ae4578251825591602001919060010190610ac9565b5b509050610af29190610b97565b5090565b828054828255906000526020600020908101928215610b32579160200282015b82811115610b31578251825591602001919060010190610b16565b5b509050610b3f9190610b97565b5090565b602060405190810160405280600081525090565b815481835581811511610b7e57818360005260206000209182019101610b7d9190610b97565b5b505050565b602060405190810160405280600081525090565b610bb991905b80821115610bb5576000816000905550600101610b9d565b5090565b905600a165627a7a723058204b344c275074bcf233c57a5905de9151206c2a6081dcfbb1edd19c06b7e4198e0029",
  "source": "pragma solidity ^0.4.11;//defines the version which must be supported by the compiler\r\n//can't be compiled by a complier over v0.5\r\n\r\n// VehicleContract is used to manage vehicles, sensor data, and tickets\r\n//\r\n\r\ncontract VehicleContract {\r\n\t// uint public vin;  // Vehicle ID Number\r\n\tmapping(address => Vehicle) registeredVehicles;\r\n\tmapping(address => Sensor) sensors;\r\n\tevent TicketAdded(uint time, address vehicleID, address sensorID, uint measuredSpeed);\r\n\tevent TicketPayed(uint time, address vehcileID, uint amount);\r\n\tuint ticketNumber;\r\n\r\n\t// Structures: Vehicle, city sensors, tickets\r\n\r\n\tstruct Vehicle {\r\n\t\tstring ownerName;\r\n\t\tuint[] ticketIds;\r\n\t\tmapping(uint => Ticket) pendingTickets;\r\n\t}\r\n\r\n\tstruct Sensor {\r\n\t\tuint speedLimit;\r\n\t}\r\n\r\n\tstruct Ticket {\r\n\t\tuint tid;\t// ticket number\r\n\t\taddress vin;\r\n\t\taddress sid;\r\n\t\tuint speed;\r\n\t\tuint256 time;\r\n\t}\r\n\r\n\tfunction VehicleContract() public {\r\n\t\tticketNumber = 1;\r\n\t}\r\n\r\n\t// Function: Register vehicle, check speed (sensor), give ticket (sensor), pay ticket\r\n\r\n\tfunction registerVehicle(string name) public {\r\n\t\tregisteredVehicles[msg.sender] = Vehicle(name, new uint[](0));//new Ticket[](0)\r\n\t}\r\n\r\n\tfunction displayVehicleName(address vid) public view returns (string){\r\n\t\tVehicle storage v = registeredVehicles[vid];\r\n\t\treturn (v.ownerName);\r\n\t}\r\n\r\n\tfunction displayVehicleTickets(address vid) public view returns (uint[]){\r\n\t\tVehicle storage v = registeredVehicles[vid];\r\n\t\treturn (v.ticketIds);\r\n\t}\r\n\r\n\r\n\tfunction addSensor(uint speed) public {\r\n\t\tsensors[msg.sender] = Sensor(speed);\r\n\t}\r\n\r\n\tfunction checkSpeed(address vid, uint measuredSpeed) public {\r\n\t\t/* require(); */\r\n\t\tif (measuredSpeed > sensors[msg.sender].speedLimit) {\r\n\t\t\tgiveTicket(vid, msg.sender, measuredSpeed);\r\n\t\t\t//TicketAdded(now, vid, msg.sender, measuredSpeed);\r\n\t\t}\r\n\t}\r\n\r\n\tfunction giveTicket(address vid, address sid, uint measuredSpeed) public {\r\n\t\tTicketAdded(now, vid, msg.sender, measuredSpeed);\r\n\t\tregisteredVehicles[vid].pendingTickets[ticketNumber] = Ticket(ticketNumber, vid, sid, measuredSpeed, now);\r\n\t\tregisteredVehicles[vid].ticketIds.push(ticketNumber);\r\n\t\tticketNumber++;\r\n\t}\r\n\r\n\tfunction payTicket(uint ticketId, address receiver) payable public{\r\n\t\t/* require(msg.value>=1 ether); */\r\n\t\tuint change=0;\r\n\t\treceiver.transfer(msg.value);\r\n\r\n\t\t/* if(msg.value>1){\r\n\t\t\tchange = msg.value-1;\r\n\t\t\tmsg.sender.transfer(change);\r\n\t\t} */\r\n\t\tdelete registeredVehicles[msg.sender].pendingTickets[ticketId];\r\n\t\tdelete registeredVehicles[msg.sender].ticketIds[ticketId];\r\n\r\n\t\tTicketPayed(now, msg.sender, msg.value);\r\n\t}\r\n\t// Need to:\r\n}\r\n",
  "sourcePath": "G:\\Documents\\CSCI_599\\project\\contracts\\VehicleContract.sol",
  "compiler": {
    "name": "solc",
    "version": "0.4.18+commit.9cf6e910.Emscripten.clang"
  },
  "schemaVersion": "1.0.1",
  "updatedAt": "2018-05-02T01:20:03.656Z"
}