{
  "contractName": "VehicleContract",
  "abi": [
    {
      "constant": false,
      "inputs": [
        {
          "name": "speed",
          "type": "uint256"
        }
      ],
      "name": "addSensor",
      "outputs": [],
      "payable": false,
      "stateMutability": "nonpayable",
      "type": "function"
    },
    {
      "constant": false,
      "inputs": [
        {
          "name": "vid",
          "type": "address"
        },
        {
          "name": "measuredSpeed",
          "type": "uint256"
        }
      ],
      "name": "checkSpeed",
      "outputs": [],
      "payable": false,
      "stateMutability": "nonpayable",
      "type": "function"
    },
    {
      "constant": false,
      "inputs": [
        {
          "name": "name",
          "type": "bytes32"
        }
      ],
      "name": "registerVehicle",
      "outputs": [],
      "payable": false,
      "stateMutability": "nonpayable",
      "type": "function"
    },
    {
      "constant": false,
      "inputs": [
        {
          "name": "vid",
          "type": "address"
        },
        {
          "name": "sid",
          "type": "address"
        },
        {
          "name": "measuredSpeed",
          "type": "uint256"
        }
      ],
      "name": "giveTicket",
      "outputs": [],
      "payable": false,
      "stateMutability": "nonpayable",
      "type": "function"
    },
    {
      "inputs": [],
      "payable": false,
      "stateMutability": "nonpayable",
      "type": "constructor"
    },
    {
      "anonymous": false,
      "inputs": [
        {
          "indexed": false,
          "name": "time",
          "type": "uint256"
        },
        {
          "indexed": false,
          "name": "vehicleID",
          "type": "address"
        },
        {
          "indexed": false,
          "name": "sensorID",
          "type": "address"
        },
        {
          "indexed": false,
          "name": "measuredSpeed",
          "type": "uint256"
        }
      ],
      "name": "TicketAdded",
      "type": "event"
    },
    {
      "anonymous": false,
      "inputs": [
        {
          "indexed": false,
          "name": "sensorID",
          "type": "address"
        }
      ],
      "name": "VehicleAdded",
      "type": "event"
    }
  ],
  "bytecode": "0x6060604052341561000f57600080fd5b60016002819055506104b8806100266000396000f300606060405260043610610062576000357c0100000000000000000000000000000000000000000000000000000000900463ffffffff1680630adbba9814610067578063683d8ea21461008a578063697f8606146100cc5780638d013b95146100f3575b600080fd5b341561007257600080fd5b6100886004808035906020019091905050610154565b005b341561009557600080fd5b6100ca600480803573ffffffffffffffffffffffffffffffffffffffff169060200190919080359060200190919050506101b3565b005b34156100d757600080fd5b6100f160048080356000191690602001909190505061020d565b005b34156100fe57600080fd5b610152600480803573ffffffffffffffffffffffffffffffffffffffff1690602001909190803573ffffffffffffffffffffffffffffffffffffffff16906020019091908035906020019091905050610275565b005b60206040519081016040528082815250600160003373ffffffffffffffffffffffffffffffffffffffff1673ffffffffffffffffffffffffffffffffffffffff1681526020019081526020016000206000820151816000015590505050565b600160003373ffffffffffffffffffffffffffffffffffffffff1673ffffffffffffffffffffffffffffffffffffffff1681526020019081526020016000206000015481111561020957610208823383610275565b5b5050565b60206040519081016040528082600019168152506000803373ffffffffffffffffffffffffffffffffffffffff1673ffffffffffffffffffffffffffffffffffffffff1681526020019081526020016000206000820151816000019060001916905590505050565b7f5bc514c20d3f0faf30d408638c3c91afbc19aec70e9605d48b4b4d30e9e6074642843384604051808581526020018473ffffffffffffffffffffffffffffffffffffffff1673ffffffffffffffffffffffffffffffffffffffff1681526020018373ffffffffffffffffffffffffffffffffffffffff1673ffffffffffffffffffffffffffffffffffffffff16815260200182815260200194505050505060405180910390a160a06040519081016040528060025481526020018473ffffffffffffffffffffffffffffffffffffffff1681526020018373ffffffffffffffffffffffffffffffffffffffff168152602001828152602001428152506000808573ffffffffffffffffffffffffffffffffffffffff1673ffffffffffffffffffffffffffffffffffffffff168152602001908152602001600020600101600060025481526020019081526020016000206000820151816000015560208201518160010160006101000a81548173ffffffffffffffffffffffffffffffffffffffff021916908373ffffffffffffffffffffffffffffffffffffffff16021790555060408201518160020160006101000a81548173ffffffffffffffffffffffffffffffffffffffff021916908373ffffffffffffffffffffffffffffffffffffffff16021790555060608201518160030155608082015181600401559050506002600081548092919060010191905055505050505600a165627a7a7230582023b909c4d5e2b3f87290644142369e47f38080fe1ebbfb8da077c2b8f20088b40029",
  "source": "pragma solidity ^0.4.11;//defines the version which must be supported by the compiler\r\n//can't be compiled by a complier over v0.5\r\n\r\n// VehicleContract is used to manage vehicles, sensor data, and tickets\r\n//\r\n\r\ncontract VehicleContract {\r\n\t// uint public vin;  // Vehicle ID Number\r\n\tmapping(address => Vehicle) registeredVehicles;\r\n\tmapping(address => Sensor) sensors;\r\n\tevent TicketAdded(uint time, address vehicleID, address sensorID, uint measuredSpeed);\r\n\tevent VehicleAdded(address sensorID);\r\n\tuint ticketNumber;\r\n\r\n\t// Structures: Vehicle, city sensors, tickets\r\n\r\n\tstruct Vehicle {\r\n\t\tbytes32 ownerName;\r\n\t\tmapping(uint => Ticket) pendingTickets;\r\n\t}\r\n\r\n\tstruct Sensor {\r\n\t\tuint speedLimit;\r\n\t}\r\n\r\n\tstruct Ticket {\r\n\t\tuint tid;\t// ticket number\r\n\t\taddress vin;\r\n\t\taddress sid;\r\n\t\tuint speed;\r\n\t\tuint256 time;\r\n\t}\r\n\r\n\tfunction VehicleContract() public {\r\n\t\tticketNumber = 1;\r\n\t}\r\n\r\n\t// Function: Register vehicle, check speed (sensor), give ticket (sensor), pay ticket\r\n\r\n\tfunction registerVehicle(bytes32 name) public {\r\n\t\tregisteredVehicles[msg.sender] = Vehicle(name);//new Ticket[](0)\r\n\t}\r\n\r\n\tfunction addSensor(uint speed) public {\r\n\t\tsensors[msg.sender] = Sensor(speed);\r\n\t}\r\n\r\n\tfunction checkSpeed(address vid, uint measuredSpeed) public {\r\n\t\t/* require(); */\r\n\t\tif (measuredSpeed > sensors[msg.sender].speedLimit) {\r\n\t\t\tgiveTicket(vid, msg.sender, measuredSpeed);\r\n\t\t\t//TicketAdded(now, vid, msg.sender, measuredSpeed);\r\n\t\t}\r\n\t}\r\n\r\n\tfunction giveTicket(address vid, address sid, uint measuredSpeed) public {\r\n\t\tTicketAdded(now, vid, msg.sender, measuredSpeed);\r\n\t\tregisteredVehicles[vid].pendingTickets[ticketNumber] = Ticket(ticketNumber, vid, sid, measuredSpeed, now);\r\n\t\tticketNumber++;\r\n\t}\r\n\r\n\t// Need to:\r\n}\r\n",
  "sourcePath": "G:\\Documents\\CSCI_599\\project\\contracts\\VehicleContract.sol",
  "compiler": {
    "name": "solc",
    "version": "0.4.18+commit.9cf6e910.Emscripten.clang"
  },
  "schemaVersion": "1.0.1",
  "updatedAt": "2018-05-01T21:18:25.044Z"
}