{
  "contractName": "VehicleContract",
  "abi": [
    {
      "constant": false,
      "inputs": [
        {
          "name": "name",
          "type": "string"
        }
      ],
      "name": "registerVehicle",
      "outputs": [],
      "payable": false,
      "stateMutability": "nonpayable",
      "type": "function"
    },
    {
      "constant": false,
      "inputs": [
        {
          "name": "speed",
          "type": "uint256"
        }
      ],
      "name": "addSensor",
      "outputs": [],
      "payable": false,
      "stateMutability": "nonpayable",
      "type": "function"
    },
    {
      "constant": true,
      "inputs": [
        {
          "name": "vid",
          "type": "address"
        },
        {
          "name": "ticketId",
          "type": "uint256"
        }
      ],
      "name": "displayTicketDetails",
      "outputs": [
        {
          "name": "",
          "type": "uint256"
        },
        {
          "name": "",
          "type": "address"
        },
        {
          "name": "",
          "type": "address"
        },
        {
          "name": "",
          "type": "uint256"
        },
        {
          "name": "",
          "type": "uint256"
        }
      ],
      "payable": false,
      "stateMutability": "view",
      "type": "function"
    },
    {
      "constant": true,
      "inputs": [
        {
          "name": "vid",
          "type": "address"
        }
      ],
      "name": "displayVehicleName",
      "outputs": [
        {
          "name": "",
          "type": "string"
        }
      ],
      "payable": false,
      "stateMutability": "view",
      "type": "function"
    },
    {
      "constant": false,
      "inputs": [
        {
          "name": "vid",
          "type": "address"
        },
        {
          "name": "measuredSpeed",
          "type": "uint256"
        }
      ],
      "name": "checkSpeed",
      "outputs": [],
      "payable": false,
      "stateMutability": "nonpayable",
      "type": "function"
    },
    {
      "constant": false,
      "inputs": [
        {
          "name": "vid",
          "type": "address"
        },
        {
          "name": "sid",
          "type": "address"
        },
        {
          "name": "measuredSpeed",
          "type": "uint256"
        }
      ],
      "name": "giveTicket",
      "outputs": [],
      "payable": false,
      "stateMutability": "nonpayable",
      "type": "function"
    },
    {
      "constant": true,
      "inputs": [
        {
          "name": "vid",
          "type": "address"
        }
      ],
      "name": "displayVehicleTickets",
      "outputs": [
        {
          "name": "",
          "type": "uint256[]"
        }
      ],
      "payable": false,
      "stateMutability": "view",
      "type": "function"
    },
    {
      "constant": false,
      "inputs": [
        {
          "name": "ticketId",
          "type": "uint256"
        },
        {
          "name": "receiver",
          "type": "address"
        }
      ],
      "name": "payTicket",
      "outputs": [],
      "payable": true,
      "stateMutability": "payable",
      "type": "function"
    },
    {
      "inputs": [],
      "payable": false,
      "stateMutability": "nonpayable",
      "type": "constructor"
    },
    {
      "anonymous": false,
      "inputs": [
        {
          "indexed": false,
          "name": "time",
          "type": "uint256"
        },
        {
          "indexed": false,
          "name": "vehicleID",
          "type": "address"
        },
        {
          "indexed": false,
          "name": "sensorID",
          "type": "address"
        },
        {
          "indexed": false,
          "name": "measuredSpeed",
          "type": "uint256"
        }
      ],
      "name": "TicketAdded",
      "type": "event"
    },
    {
      "anonymous": false,
      "inputs": [
        {
          "indexed": false,
          "name": "time",
          "type": "uint256"
        },
        {
          "indexed": false,
          "name": "ticketId",
          "type": "uint256"
        },
        {
          "indexed": false,
          "name": "vehcileID",
          "type": "address"
        },
        {
          "indexed": false,
          "name": "amount",
          "type": "uint256"
        }
      ],
      "name": "TicketPayed",
      "type": "event"
    },
    {
      "anonymous": false,
      "inputs": [
        {
          "indexed": false,
          "name": "time",
          "type": "uint256"
        },
        {
          "indexed": false,
          "name": "ticketId",
          "type": "uint256"
        },
        {
          "indexed": false,
          "name": "vehcileID",
          "type": "address"
        },
        {
          "indexed": false,
          "name": "amount",
          "type": "uint256"
        }
      ],
      "name": "ChangeReturned",
      "type": "event"
    }
  ],
  "bytecode": "0x6060604052341561000f57600080fd5b6001600281905550610df1806100266000396000f30060606040526004361061008d576000357c0100000000000000000000000000000000000000000000000000000000900463ffffffff1680626bd2af146100925780630adbba98146100ef57806341b15db0146101125780635914887f146101dc578063683d8ea21461028e5780638d013b95146102d0578063acb08a8514610331578063d58c8c4c146103bf575b600080fd5b341561009d57600080fd5b6100ed600480803590602001908201803590602001908080601f016020809104026020016040519081016040528093929190818152602001838380828437820191505050505050919050506103f6565b005b34156100fa57600080fd5b61011060048080359060200190919050506104a8565b005b341561011d57600080fd5b610152600480803573ffffffffffffffffffffffffffffffffffffffff16906020019091908035906020019091905050610507565b604051808681526020018573ffffffffffffffffffffffffffffffffffffffff1673ffffffffffffffffffffffffffffffffffffffff1681526020018473ffffffffffffffffffffffffffffffffffffffff1673ffffffffffffffffffffffffffffffffffffffff1681526020018381526020018281526020019550505050505060405180910390f35b34156101e757600080fd5b610213600480803573ffffffffffffffffffffffffffffffffffffffff16906020019091905050610622565b6040518080602001828103825283818151815260200191508051906020019080838360005b83811015610253578082015181840152602081019050610238565b50505050905090810190601f1680156102805780820380516001836020036101000a031916815260200191505b509250505060405180910390f35b341561029957600080fd5b6102ce600480803573ffffffffffffffffffffffffffffffffffffffff16906020019091908035906020019091905050610711565b005b34156102db57600080fd5b61032f600480803573ffffffffffffffffffffffffffffffffffffffff1690602001909190803573ffffffffffffffffffffffffffffffffffffffff1690602001909190803590602001909190505061076b565b005b341561033c57600080fd5b610368600480803573ffffffffffffffffffffffffffffffffffffffff169060200190919050506109ec565b6040518080602001828103825283818151815260200191508051906020019060200280838360005b838110156103ab578082015181840152602081019050610390565b505050509050019250505060405180910390f35b6103f4600480803590602001909190803573ffffffffffffffffffffffffffffffffffffffff16906020019091905050610a91565b005b604080519081016040528082815260200160006040518059106104165750595b90808252806020026020018201604052508152506000803373ffffffffffffffffffffffffffffffffffffffff1673ffffffffffffffffffffffffffffffffffffffff1681526020019081526020016000206000820151816000019080519060200190610484929190610c7f565b5060208201518160010190805190602001906104a1929190610cff565b5090505050565b60206040519081016040528082815250600160003373ffffffffffffffffffffffffffffffffffffffff1673ffffffffffffffffffffffffffffffffffffffff1681526020019081526020016000206000820151816000015590505050565b6000806000806000806000808973ffffffffffffffffffffffffffffffffffffffff1673ffffffffffffffffffffffffffffffffffffffff16815260200190815260200160002090508060020160008881526020019081526020016000206000015481600201600089815260200190815260200160002060010160009054906101000a900473ffffffffffffffffffffffffffffffffffffffff168260020160008a815260200190815260200160002060020160009054906101000a900473ffffffffffffffffffffffffffffffffffffffff168360020160008b8152602001908152602001600020600301548460020160008c81526020019081526020016000206004015495509550955095509550509295509295909350565b61062a610d4c565b60008060008473ffffffffffffffffffffffffffffffffffffffff1673ffffffffffffffffffffffffffffffffffffffff1681526020019081526020016000209050806000018054600181600116156101000203166002900480601f0160208091040260200160405190810160405280929190818152602001828054600181600116156101000203166002900480156107045780601f106106d957610100808354040283529160200191610704565b820191906000526020600020905b8154815290600101906020018083116106e757829003601f168201915b5050505050915050919050565b600160003373ffffffffffffffffffffffffffffffffffffffff1673ffffffffffffffffffffffffffffffffffffffff168152602001908152602001600020600001548111156107675761076682338361076b565b5b5050565b7f5bc514c20d3f0faf30d408638c3c91afbc19aec70e9605d48b4b4d30e9e6074642843384604051808581526020018473ffffffffffffffffffffffffffffffffffffffff1673ffffffffffffffffffffffffffffffffffffffff1681526020018373ffffffffffffffffffffffffffffffffffffffff1673ffffffffffffffffffffffffffffffffffffffff16815260200182815260200194505050505060405180910390a160a06040519081016040528060025481526020018473ffffffffffffffffffffffffffffffffffffffff1681526020018373ffffffffffffffffffffffffffffffffffffffff168152602001828152602001428152506000808573ffffffffffffffffffffffffffffffffffffffff1673ffffffffffffffffffffffffffffffffffffffff168152602001908152602001600020600201600060025481526020019081526020016000206000820151816000015560208201518160010160006101000a81548173ffffffffffffffffffffffffffffffffffffffff021916908373ffffffffffffffffffffffffffffffffffffffff16021790555060408201518160020160006101000a81548173ffffffffffffffffffffffffffffffffffffffff021916908373ffffffffffffffffffffffffffffffffffffffff16021790555060608201518160030155608082015181600401559050506000808473ffffffffffffffffffffffffffffffffffffffff1673ffffffffffffffffffffffffffffffffffffffff16815260200190815260200160002060010180548060010182816109be9190610d60565b9160005260206000209001600060025490919091505550600260008154809291906001019190505550505050565b6109f4610d8c565b60008060008473ffffffffffffffffffffffffffffffffffffffff1673ffffffffffffffffffffffffffffffffffffffff168152602001908152602001600020905080600101805480602002602001604051908101604052809291908181526020018280548015610a8457602002820191906000526020600020905b815481526020019060010190808311610a70575b5050505050915050919050565b670de0b6b3a76400003410151515610aa857600080fd5b8073ffffffffffffffffffffffffffffffffffffffff166108fc349081150290604051600060405180830381858888f193505050501515610ae857600080fd5b6000803373ffffffffffffffffffffffffffffffffffffffff1673ffffffffffffffffffffffffffffffffffffffff16815260200190815260200160002060020160008381526020019081526020016000206000808201600090556001820160006101000a81549073ffffffffffffffffffffffffffffffffffffffff02191690556002820160006101000a81549073ffffffffffffffffffffffffffffffffffffffff02191690556003820160009055600482016000905550506000803373ffffffffffffffffffffffffffffffffffffffff1673ffffffffffffffffffffffffffffffffffffffff16815260200190815260200160002060010182815481101515610bf157fe5b9060005260206000209001600090557f224c5b1923aa7c82e7edb7f8e0babc138ca29fd46ee26aefcdf36350fc0b8ebf42833334604051808581526020018481526020018373ffffffffffffffffffffffffffffffffffffffff1673ffffffffffffffffffffffffffffffffffffffff16815260200182815260200194505050505060405180910390a15050565b828054600181600116156101000203166002900490600052602060002090601f016020900481019282601f10610cc057805160ff1916838001178555610cee565b82800160010185558215610cee579182015b82811115610ced578251825591602001919060010190610cd2565b5b509050610cfb9190610da0565b5090565b828054828255906000526020600020908101928215610d3b579160200282015b82811115610d3a578251825591602001919060010190610d1f565b5b509050610d489190610da0565b5090565b602060405190810160405280600081525090565b815481835581811511610d8757818360005260206000209182019101610d869190610da0565b5b505050565b602060405190810160405280600081525090565b610dc291905b80821115610dbe576000816000905550600101610da6565b5090565b905600a165627a7a723058209d5c46082e78eac357b2114b4638574908c3d186e98ecef0ed4b153e82a80ff20029",
  "source": "pragma solidity ^0.4.11;//defines the version which must be supported by the compiler\r\n//can't be compiled by a complier over v0.5\r\n\r\n// VehicleContract is used to manage vehicles, sensor data, and tickets\r\n//\r\n\r\ncontract VehicleContract {\r\n\t// uint public vin;  // Vehicle ID Number\r\n\tmapping(address => Vehicle) registeredVehicles;\r\n\tmapping(address => Sensor) sensors;\r\n\tevent TicketAdded(uint time, address vehicleID, address sensorID, uint measuredSpeed);\r\n\tevent TicketPayed(uint time, uint ticketId, address vehcileID, uint amount);\r\n\tevent ChangeReturned(uint time, uint ticketId, address vehcileID, uint amount);\r\n\tuint ticketNumber;\r\n\r\n\t// Structures: Vehicle, city sensors, tickets\r\n\r\n\tstruct Vehicle {\r\n\t\tstring ownerName;\r\n\t\tuint[] ticketIds;\r\n\t\tmapping(uint => Ticket) pendingTickets;\r\n\t}\r\n\r\n\tstruct Sensor {\r\n\t\tuint speedLimit;\r\n\t}\r\n\r\n\tstruct Ticket {\r\n\t\tuint tid;\t// ticket number\r\n\t\taddress vin;\r\n\t\taddress sid;\r\n\t\tuint speed;\r\n\t\tuint256 time;\r\n\t}\r\n\r\n\tfunction VehicleContract() public {\r\n\t\tticketNumber = 1;\r\n\t}\r\n\r\n\t// Function: Register vehicle, check speed (sensor), give ticket (sensor), pay ticket\r\n\r\n//Function to register a vehicle\r\n\tfunction registerVehicle(string name) public {\r\n\t\tregisteredVehicles[msg.sender] = Vehicle(name, new uint[](0));//new Ticket[](0)\r\n\t}\r\n\r\n//Function to display vehicle name\r\n\tfunction displayVehicleName(address vid) public view returns (string){\r\n\t\tVehicle storage v = registeredVehicles[vid];\r\n\t\treturn (v.ownerName);\r\n\t}\r\n\r\n//Function to display pending ticket ids\r\n\tfunction displayVehicleTickets(address vid) public view returns (uint[]){\r\n\t\tVehicle storage v = registeredVehicles[vid];\r\n\t\treturn (v.ticketIds);\r\n\t}\r\n\r\n//Function to display ticket details for a particluar vehicle and ticketid\r\n\tfunction displayTicketDetails(address vid, uint ticketId) public view returns(uint,address,address,uint,uint256){\r\n\t\tVehicle storage v = registeredVehicles[vid];\r\n\t\treturn (v.pendingTickets[ticketId].tid, v.pendingTickets[ticketId].vin, v.pendingTickets[ticketId].sid, v.pendingTickets[ticketId].speed, v.pendingTickets[ticketId].time);\r\n\t}\r\n\r\n//Function to add a sensor\r\n\tfunction addSensor(uint speed) public {\r\n\t\tsensors[msg.sender] = Sensor(speed);\r\n\t}\r\n\r\n//Function to be called by sensor to check speed of passing vehicle\r\n\tfunction checkSpeed(address vid, uint measuredSpeed) public {\r\n\r\n\t\tif (measuredSpeed > sensors[msg.sender].speedLimit) {\r\n\t\t\tgiveTicket(vid, msg.sender, measuredSpeed);\r\n\t\t}\r\n\t}\r\n\r\n//Function to give a speeding vehicle a ticket.\r\n//To be called by the sensor\r\n\tfunction giveTicket(address vid, address sid, uint measuredSpeed) public {\r\n\t\tTicketAdded(now, vid, msg.sender, measuredSpeed);\r\n\t\tregisteredVehicles[vid].pendingTickets[ticketNumber] = Ticket(ticketNumber, vid, sid, measuredSpeed, now);\r\n\t\tregisteredVehicles[vid].ticketIds.push(ticketNumber);\r\n\t\tticketNumber++;\r\n\t}\r\n\r\n//Function to pay a ticket\r\n//To be called by Vehicle\r\n\tfunction payTicket(uint ticketId, address receiver) payable public{\r\n\t\trequire(msg.value>=1 ether);\r\n\t\t/* uint change=0;\r\n\r\n\r\n\t\tif(msg.value>1 ether){\r\n\t\t\tchange = msg.value-1;\r\n\t\t\tmsg.sender.transfer(change);\r\n\t\t\tChangeReturned(now, ticketId, msg.sender, change);\r\n\t\t} */\r\n\t\treceiver.transfer(msg.value);\r\n\t\tdelete registeredVehicles[msg.sender].pendingTickets[ticketId];\r\n\t\tdelete registeredVehicles[msg.sender].ticketIds[ticketId];\r\n\r\n\t\tTicketPayed(now, ticketId, msg.sender, msg.value);\r\n\t}\r\n\r\n}\r\n",
  "sourcePath": "G:\\Documents\\CSCI_599\\project\\contracts\\VehicleContract.sol",
  "compiler": {
    "name": "solc",
    "version": "0.4.18+commit.9cf6e910.Emscripten.clang"
  },
  "schemaVersion": "1.0.1",
  "updatedAt": "2018-05-02T18:34:08.517Z"
}